{
  "_format": "hh-sol-artifact-1",
  "contractName": "IcoContract",
  "sourceName": "contracts/Ico.sol",
  "abi": [
    {
      "inputs": [],
      "stateMutability": "nonpayable",
      "type": "constructor"
    },
    {
      "inputs": [],
      "name": "amount",
      "outputs": [
        {
          "internalType": "uint256",
          "name": "",
          "type": "uint256"
        }
      ],
      "stateMutability": "view",
      "type": "function"
    },
    {
      "inputs": [],
      "name": "contractBalance",
      "outputs": [
        {
          "internalType": "uint256",
          "name": "",
          "type": "uint256"
        }
      ],
      "stateMutability": "view",
      "type": "function"
    },
    {
      "inputs": [
        {
          "internalType": "address",
          "name": "adr",
          "type": "address"
        }
      ],
      "name": "getBalanceOf",
      "outputs": [
        {
          "internalType": "uint256",
          "name": "",
          "type": "uint256"
        }
      ],
      "stateMutability": "view",
      "type": "function"
    },
    {
      "inputs": [],
      "name": "getTotalSupply",
      "outputs": [
        {
          "internalType": "uint256",
          "name": "",
          "type": "uint256"
        }
      ],
      "stateMutability": "view",
      "type": "function"
    },
    {
      "inputs": [],
      "name": "invest",
      "outputs": [],
      "stateMutability": "payable",
      "type": "function"
    },
    {
      "inputs": [
        {
          "internalType": "address",
          "name": "",
          "type": "address"
        }
      ],
      "name": "investors",
      "outputs": [
        {
          "internalType": "address",
          "name": "account",
          "type": "address"
        },
        {
          "internalType": "uint256",
          "name": "invested",
          "type": "uint256"
        },
        {
          "internalType": "uint256",
          "name": "EXMAllocation",
          "type": "uint256"
        },
        {
          "internalType": "uint256",
          "name": "date",
          "type": "uint256"
        }
      ],
      "stateMutability": "view",
      "type": "function"
    },
    {
      "inputs": [],
      "name": "kryptToken",
      "outputs": [
        {
          "internalType": "contract KryptToken",
          "name": "",
          "type": "address"
        }
      ],
      "stateMutability": "view",
      "type": "function"
    },
    {
      "inputs": [],
      "name": "maxAllocation",
      "outputs": [
        {
          "internalType": "uint256",
          "name": "",
          "type": "uint256"
        }
      ],
      "stateMutability": "view",
      "type": "function"
    },
    {
      "inputs": [],
      "name": "maxInvestment",
      "outputs": [
        {
          "internalType": "uint256",
          "name": "",
          "type": "uint256"
        }
      ],
      "stateMutability": "view",
      "type": "function"
    },
    {
      "inputs": [],
      "name": "owner",
      "outputs": [
        {
          "internalType": "address",
          "name": "",
          "type": "address"
        }
      ],
      "stateMutability": "view",
      "type": "function"
    },
    {
      "inputs": [],
      "name": "price",
      "outputs": [
        {
          "internalType": "uint256",
          "name": "",
          "type": "uint256"
        }
      ],
      "stateMutability": "view",
      "type": "function"
    }
  ],
  "bytecode": "0x60806040523480156200001157600080fd5b50336000806101000a81548173ffffffffffffffffffffffffffffffffffffffff021916908373ffffffffffffffffffffffffffffffffffffffff1602179055506040516200006090620001a8565b604051809103906000f0801580156200007d573d6000803e3d6000fd5b50600660006101000a81548173ffffffffffffffffffffffffffffffffffffffff021916908373ffffffffffffffffffffffffffffffffffffffff160217905550600660009054906101000a900473ffffffffffffffffffffffffffffffffffffffff1673ffffffffffffffffffffffffffffffffffffffff166370a08231306040518263ffffffff1660e01b81526004016200011b91906200020a565b60206040518083038186803b1580156200013457600080fd5b505afa15801562000149573d6000803e3d6000fd5b505050506040513d601f19601f820116820180604052508101906200016f9190620001cd565b60018190555066038d7ea4c6800060028190555068056bc75e2d6310000060038190555067016345785d8a00006004819055506200027f565b611f29806200143083390190565b600081519050620001c78162000265565b92915050565b600060208284031215620001e057600080fd5b6000620001f084828501620001b6565b91505092915050565b620002048162000227565b82525050565b6000602082019050620002216000830184620001f9565b92915050565b600062000234826200023b565b9050919050565b600073ffffffffffffffffffffffffffffffffffffffff82169050919050565b6000819050919050565b62000270816200025b565b81146200027c57600080fd5b50565b6111a1806200028f6000396000f3fe60806040526004361061009b5760003560e01c80639b96eece116100645780639b96eece1461018c578063a035b1fe146101c9578063aa8c217c146101f4578063af64b91b1461021f578063c4e41b221461024a578063e8b5e51f146102755761009b565b80622e1316146100a05780636f7bc9be146100cb5780638b7afe2e1461010b5780638da5cb5b146101365780639b3ba79f14610161575b600080fd5b3480156100ac57600080fd5b506100b561027f565b6040516100c29190610f71565b60405180910390f35b3480156100d757600080fd5b506100f260048036038101906100ed9190610b01565b610285565b6040516101029493929190610e51565b60405180910390f35b34801561011757600080fd5b506101206102d5565b60405161012d9190610f71565b60405180910390f35b34801561014257600080fd5b5061014b6102dd565b6040516101589190610e0d565b60405180910390f35b34801561016d57600080fd5b50610176610301565b6040516101839190610f71565b60405180910390f35b34801561019857600080fd5b506101b360048036038101906101ae9190610b01565b610307565b6040516101c09190610f71565b60405180910390f35b3480156101d557600080fd5b506101de6103bb565b6040516101eb9190610f71565b60405180910390f35b34801561020057600080fd5b506102096103c1565b6040516102169190610f71565b60405180910390f35b34801561022b57600080fd5b506102346103c7565b6040516102419190610e96565b60405180910390f35b34801561025657600080fd5b5061025f6103ed565b60405161026c9190610f71565b60405180910390f35b61027d610494565b005b60045481565b60056020528060005260406000206000915090508060000160009054906101000a900473ffffffffffffffffffffffffffffffffffffffff16908060010154908060020154908060030154905084565b600047905090565b60008054906101000a900473ffffffffffffffffffffffffffffffffffffffff1681565b60035481565b6000600660009054906101000a900473ffffffffffffffffffffffffffffffffffffffff1673ffffffffffffffffffffffffffffffffffffffff166370a08231836040518263ffffffff1660e01b81526004016103649190610e0d565b60206040518083038186803b15801561037c57600080fd5b505afa158015610390573d6000803e3d6000fd5b505050506040513d601f19601f820116820180604052508101906103b49190610b53565b9050919050565b60025481565b60015481565b600660009054906101000a900473ffffffffffffffffffffffffffffffffffffffff1681565b6000600660009054906101000a900473ffffffffffffffffffffffffffffffffffffffff1673ffffffffffffffffffffffffffffffffffffffff166318160ddd6040518163ffffffff1660e01b815260040160206040518083038186803b15801561045757600080fd5b505afa15801561046b573d6000803e3d6000fd5b505050506040513d601f19601f8201168201806040525081019061048f9190610b53565b905090565b61049c610a84565b600073ffffffffffffffffffffffffffffffffffffffff16600560003373ffffffffffffffffffffffffffffffffffffffff1673ffffffffffffffffffffffffffffffffffffffff16815260200190815260200160002060000160009054906101000a900473ffffffffffffffffffffffffffffffffffffffff1673ffffffffffffffffffffffffffffffffffffffff161461056d576040517f08c379a000000000000000000000000000000000000000000000000000000000815260040161056490610ef1565b60405180910390fd5b6004543411156105b2576040517f08c379a00000000000000000000000000000000000000000000000000000000081526004016105a990610ed1565b60405180910390fd5b6106123360405180608001604052803373ffffffffffffffffffffffffffffffffffffffff168152602001348152602001600254670de0b6b3a7640000346105fa9190610fce565b6106049190610f9d565b815260200142815250610884565b3373ffffffffffffffffffffffffffffffffffffffff16600560003373ffffffffffffffffffffffffffffffffffffffff1673ffffffffffffffffffffffffffffffffffffffff16815260200190815260200160002060000160009054906101000a900473ffffffffffffffffffffffffffffffffffffffff1673ffffffffffffffffffffffffffffffffffffffff16146106e2576040517f08c379a00000000000000000000000000000000000000000000000000000000081526004016106d990610f31565b60405180910390fd5b600073ffffffffffffffffffffffffffffffffffffffff16600560003373ffffffffffffffffffffffffffffffffffffffff1673ffffffffffffffffffffffffffffffffffffffff16815260200190815260200160002060000160009054906101000a900473ffffffffffffffffffffffffffffffffffffffff1673ffffffffffffffffffffffffffffffffffffffff1614156107b4576040517f08c379a00000000000000000000000000000000000000000000000000000000081526004016107ab90610f51565b60405180910390fd5b600560003373ffffffffffffffffffffffffffffffffffffffff1673ffffffffffffffffffffffffffffffffffffffff1681526020019081526020016000206040518060800160405290816000820160009054906101000a900473ffffffffffffffffffffffffffffffffffffffff1673ffffffffffffffffffffffffffffffffffffffff1673ffffffffffffffffffffffffffffffffffffffff168152602001600182015481526020016002820154815260200160038201548152505090506108818160400151610930565b50565b80600560008473ffffffffffffffffffffffffffffffffffffffff1673ffffffffffffffffffffffffffffffffffffffff16815260200190815260200160002060008201518160000160006101000a81548173ffffffffffffffffffffffffffffffffffffffff021916908373ffffffffffffffffffffffffffffffffffffffff1602179055506020820151816001015560408201518160020155606082015181600301559050505050565b600354811115610975576040517f08c379a000000000000000000000000000000000000000000000000000000000815260040161096c90610f11565b60405180910390fd5b600081116109b8576040517f08c379a00000000000000000000000000000000000000000000000000000000081526004016109af90610eb1565b60405180910390fd5b80600160008282546109ca9190611028565b92505081905550600660009054906101000a900473ffffffffffffffffffffffffffffffffffffffff1673ffffffffffffffffffffffffffffffffffffffff1663a9059cbb33836040518363ffffffff1660e01b8152600401610a2e929190610e28565b602060405180830381600087803b158015610a4857600080fd5b505af1158015610a5c573d6000803e3d6000fd5b505050506040513d601f19601f82011682018060405250810190610a809190610b2a565b5050565b6040518060800160405280600073ffffffffffffffffffffffffffffffffffffffff1681526020016000815260200160008152602001600081525090565b600081359050610ad181611126565b92915050565b600081519050610ae68161113d565b92915050565b600081519050610afb81611154565b92915050565b600060208284031215610b1357600080fd5b6000610b2184828501610ac2565b91505092915050565b600060208284031215610b3c57600080fd5b6000610b4a84828501610ad7565b91505092915050565b600060208284031215610b6557600080fd5b6000610b7384828501610aec565b91505092915050565b610b858161105c565b82525050565b610b94816110a4565b82525050565b6000610ba7602583610f8c565b91507f6572726f723a207175616e74697479206d757374206265206c6172676572207460008301527f68616e20300000000000000000000000000000000000000000000000000000006020830152604082019050919050565b6000610c0d603383610f8c565b91507f6572726f723a20696e766573746d656e74206973206c6172676572207468616e60008301527f206d6178696d756d20696e766573746d656e74000000000000000000000000006020830152604082019050919050565b6000610c73602b83610f8c565b91507f6572726f723a2073656e64657220697320616c7265616479206f6e20696e766560008301527f73746f7273206c6973742e0000000000000000000000000000000000000000006020830152604082019050919050565b6000610cd9602a83610f8c565b91507f6572726f723a207175616e74697479206c6172676572207468616e206d61782060008301527f616c6c6f636174696f6e000000000000000000000000000000000000000000006020830152604082019050919050565b6000610d3f602783610f8c565b91507f6572726f723a2073656e646572206973206e6f7420616464656420746f20696e60008301527f766573746f7273000000000000000000000000000000000000000000000000006020830152604082019050919050565b6000610da5602283610f8c565b91507f6572726f723a2073656e64657220616464726573732069732030783030302e2e60008301527f30300000000000000000000000000000000000000000000000000000000000006020830152604082019050919050565b610e078161109a565b82525050565b6000602082019050610e226000830184610b7c565b92915050565b6000604082019050610e3d6000830185610b7c565b610e4a6020830184610dfe565b9392505050565b6000608082019050610e666000830187610b7c565b610e736020830186610dfe565b610e806040830185610dfe565b610e8d6060830184610dfe565b95945050505050565b6000602082019050610eab6000830184610b8b565b92915050565b60006020820190508181036000830152610eca81610b9a565b9050919050565b60006020820190508181036000830152610eea81610c00565b9050919050565b60006020820190508181036000830152610f0a81610c66565b9050919050565b60006020820190508181036000830152610f2a81610ccc565b9050919050565b60006020820190508181036000830152610f4a81610d32565b9050919050565b60006020820190508181036000830152610f6a81610d98565b9050919050565b6000602082019050610f866000830184610dfe565b92915050565b600082825260208201905092915050565b6000610fa88261109a565b9150610fb38361109a565b925082610fc357610fc26110f7565b5b828204905092915050565b6000610fd98261109a565b9150610fe48361109a565b9250817fffffffffffffffffffffffffffffffffffffffffffffffffffffffffffffffff048311821515161561101d5761101c6110c8565b5b828202905092915050565b60006110338261109a565b915061103e8361109a565b925082821015611051576110506110c8565b5b828203905092915050565b60006110678261107a565b9050919050565b60008115159050919050565b600073ffffffffffffffffffffffffffffffffffffffff82169050919050565b6000819050919050565b60006110af826110b6565b9050919050565b60006110c18261107a565b9050919050565b7f4e487b7100000000000000000000000000000000000000000000000000000000600052601160045260246000fd5b7f4e487b7100000000000000000000000000000000000000000000000000000000600052601260045260246000fd5b61112f8161105c565b811461113a57600080fd5b50565b6111468161106e565b811461115157600080fd5b50565b61115d8161109a565b811461116857600080fd5b5056fea26469706673582212207166ba8b657f58464f6cc6de7ffe787dfa5d7b2f0ec68b90abc399b731ced26264736f6c6343000800003360806040523480156200001157600080fd5b506040518060400160405280600581526020017f4b727970740000000000000000000000000000000000000000000000000000008152506040518060400160405280600381526020017f4b5954000000000000000000000000000000000000000000000000000000000081525081600390805190602001906200009692919062000298565b508060049080519060200190620000af92919062000298565b505050620000ce3369d3c21bcecceda10000006200011560201b60201c565b33600560006101000a81548173ffffffffffffffffffffffffffffffffffffffff021916908373ffffffffffffffffffffffffffffffffffffffff160217905550620004e6565b600073ffffffffffffffffffffffffffffffffffffffff168273ffffffffffffffffffffffffffffffffffffffff16141562000188576040517f08c379a00000000000000000000000000000000000000000000000000000000081526004016200017f906200039b565b60405180910390fd5b6200019c600083836200028e60201b60201c565b8060026000828254620001b09190620003eb565b92505081905550806000808473ffffffffffffffffffffffffffffffffffffffff1673ffffffffffffffffffffffffffffffffffffffff1681526020019081526020016000206000828254620002079190620003eb565b925050819055508173ffffffffffffffffffffffffffffffffffffffff16600073ffffffffffffffffffffffffffffffffffffffff167fddf252ad1be2c89b69c2b068fc378daa952ba7f163c4a11628f55a4df523b3ef836040516200026e9190620003bd565b60405180910390a36200028a600083836200029360201b60201c565b5050565b505050565b505050565b828054620002a69062000452565b90600052602060002090601f016020900481019282620002ca576000855562000316565b82601f10620002e557805160ff191683800117855562000316565b8280016001018555821562000316579182015b8281111562000315578251825591602001919060010190620002f8565b5b50905062000325919062000329565b5090565b5b80821115620003445760008160009055506001016200032a565b5090565b600062000357601f83620003da565b91507f45524332303a206d696e7420746f20746865207a65726f2061646472657373006000830152602082019050919050565b620003958162000448565b82525050565b60006020820190508181036000830152620003b68162000348565b9050919050565b6000602082019050620003d460008301846200038a565b92915050565b600082825260208201905092915050565b6000620003f88262000448565b9150620004058362000448565b9250827fffffffffffffffffffffffffffffffffffffffffffffffffffffffffffffffff038211156200043d576200043c62000488565b5b828201905092915050565b6000819050919050565b600060028204905060018216806200046b57607f821691505b60208210811415620004825762000481620004b7565b5b50919050565b7f4e487b7100000000000000000000000000000000000000000000000000000000600052601160045260246000fd5b7f4e487b7100000000000000000000000000000000000000000000000000000000600052602260045260246000fd5b611a3380620004f66000396000f3fe608060405234801561001057600080fd5b50600436106100ea5760003560e01c806342966c681161008c57806395d89b411161006657806395d89b411461025f578063a457c2d71461027d578063a9059cbb146102ad578063dd62ed3e146102dd576100ea565b806342966c68146101f557806370a08231146102115780638da5cb5b14610241576100ea565b806323b872dd116100c857806323b872dd1461015b578063313ce5671461018b57806339509351146101a957806340c10f19146101d9576100ea565b806306fdde03146100ef578063095ea7b31461010d57806318160ddd1461013d575b600080fd5b6100f761030d565b6040516101049190611648565b60405180910390f35b61012760048036038101906101229190611122565b61039f565b604051610134919061162d565b60405180910390f35b6101456103bd565b60405161015291906117ca565b60405180910390f35b610175600480360381019061017091906110d3565b6103c7565b604051610182919061162d565b60405180910390f35b6101936104bf565b6040516101a091906117e5565b60405180910390f35b6101c360048036038101906101be9190611122565b6104c8565b6040516101d0919061162d565b60405180910390f35b6101f360048036038101906101ee9190611122565b610574565b005b61020f600480360381019061020a919061115e565b610612565b005b61022b6004803603810190610226919061106e565b61061f565b60405161023891906117ca565b60405180910390f35b610249610667565b6040516102569190611612565b60405180910390f35b61026761068d565b6040516102749190611648565b60405180910390f35b61029760048036038101906102929190611122565b61071f565b6040516102a4919061162d565b60405180910390f35b6102c760048036038101906102c29190611122565b61080a565b6040516102d4919061162d565b60405180910390f35b6102f760048036038101906102f29190611097565b610828565b60405161030491906117ca565b60405180910390f35b60606003805461031c9061192e565b80601f01602080910402602001604051908101604052809291908181526020018280546103489061192e565b80156103955780601f1061036a57610100808354040283529160200191610395565b820191906000526020600020905b81548152906001019060200180831161037857829003601f168201915b5050505050905090565b60006103b36103ac6108af565b84846108b7565b6001905092915050565b6000600254905090565b60006103d4848484610a82565b6000600160008673ffffffffffffffffffffffffffffffffffffffff1673ffffffffffffffffffffffffffffffffffffffff168152602001908152602001600020600061041f6108af565b73ffffffffffffffffffffffffffffffffffffffff1673ffffffffffffffffffffffffffffffffffffffff1681526020019081526020016000205490508281101561049f576040517f08c379a0000000000000000000000000000000000000000000000000000000008152600401610496906116ea565b60405180910390fd5b6104b3856104ab6108af565b8584036108b7565b60019150509392505050565b60006012905090565b600061056a6104d56108af565b8484600160006104e36108af565b73ffffffffffffffffffffffffffffffffffffffff1673ffffffffffffffffffffffffffffffffffffffff16815260200190815260200160002060008873ffffffffffffffffffffffffffffffffffffffff1673ffffffffffffffffffffffffffffffffffffffff16815260200190815260200160002054610565919061181c565b6108b7565b6001905092915050565b600560009054906101000a900473ffffffffffffffffffffffffffffffffffffffff1673ffffffffffffffffffffffffffffffffffffffff163373ffffffffffffffffffffffffffffffffffffffff1614610604576040517f08c379a00000000000000000000000000000000000000000000000000000000081526004016105fb9061174a565b60405180910390fd5b61060e8282610d03565b5050565b61061c3382610e63565b50565b60008060008373ffffffffffffffffffffffffffffffffffffffff1673ffffffffffffffffffffffffffffffffffffffff168152602001908152602001600020549050919050565b600560009054906101000a900473ffffffffffffffffffffffffffffffffffffffff1681565b60606004805461069c9061192e565b80601f01602080910402602001604051908101604052809291908181526020018280546106c89061192e565b80156107155780601f106106ea57610100808354040283529160200191610715565b820191906000526020600020905b8154815290600101906020018083116106f857829003601f168201915b5050505050905090565b6000806001600061072e6108af565b73ffffffffffffffffffffffffffffffffffffffff1673ffffffffffffffffffffffffffffffffffffffff16815260200190815260200160002060008573ffffffffffffffffffffffffffffffffffffffff1673ffffffffffffffffffffffffffffffffffffffff168152602001908152602001600020549050828110156107eb576040517f08c379a00000000000000000000000000000000000000000000000000000000081526004016107e29061178a565b60405180910390fd5b6107ff6107f66108af565b858584036108b7565b600191505092915050565b600061081e6108176108af565b8484610a82565b6001905092915050565b6000600160008473ffffffffffffffffffffffffffffffffffffffff1673ffffffffffffffffffffffffffffffffffffffff16815260200190815260200160002060008373ffffffffffffffffffffffffffffffffffffffff1673ffffffffffffffffffffffffffffffffffffffff16815260200190815260200160002054905092915050565b600033905090565b600073ffffffffffffffffffffffffffffffffffffffff168373ffffffffffffffffffffffffffffffffffffffff161415610927576040517f08c379a000000000000000000000000000000000000000000000000000000000815260040161091e9061176a565b60405180910390fd5b600073ffffffffffffffffffffffffffffffffffffffff168273ffffffffffffffffffffffffffffffffffffffff161415610997576040517f08c379a000000000000000000000000000000000000000000000000000000000815260040161098e906116aa565b60405180910390fd5b80600160008573ffffffffffffffffffffffffffffffffffffffff1673ffffffffffffffffffffffffffffffffffffffff16815260200190815260200160002060008473ffffffffffffffffffffffffffffffffffffffff1673ffffffffffffffffffffffffffffffffffffffff168152602001908152602001600020819055508173ffffffffffffffffffffffffffffffffffffffff168373ffffffffffffffffffffffffffffffffffffffff167f8c5be1e5ebec7d5bd14f71427d1e84f3dd0314c0f7b2291e5b200ac8c7c3b92583604051610a7591906117ca565b60405180910390a3505050565b600073ffffffffffffffffffffffffffffffffffffffff168373ffffffffffffffffffffffffffffffffffffffff161415610af2576040517f08c379a0000000000000000000000000000000000000000000000000000000008152600401610ae99061172a565b60405180910390fd5b600073ffffffffffffffffffffffffffffffffffffffff168273ffffffffffffffffffffffffffffffffffffffff161415610b62576040517f08c379a0000000000000000000000000000000000000000000000000000000008152600401610b599061166a565b60405180910390fd5b610b6d83838361103a565b60008060008573ffffffffffffffffffffffffffffffffffffffff1673ffffffffffffffffffffffffffffffffffffffff16815260200190815260200160002054905081811015610bf3576040517f08c379a0000000000000000000000000000000000000000000000000000000008152600401610bea906116ca565b60405180910390fd5b8181036000808673ffffffffffffffffffffffffffffffffffffffff1673ffffffffffffffffffffffffffffffffffffffff16815260200190815260200160002081905550816000808573ffffffffffffffffffffffffffffffffffffffff1673ffffffffffffffffffffffffffffffffffffffff1681526020019081526020016000206000828254610c86919061181c565b925050819055508273ffffffffffffffffffffffffffffffffffffffff168473ffffffffffffffffffffffffffffffffffffffff167fddf252ad1be2c89b69c2b068fc378daa952ba7f163c4a11628f55a4df523b3ef84604051610cea91906117ca565b60405180910390a3610cfd84848461103f565b50505050565b600073ffffffffffffffffffffffffffffffffffffffff168273ffffffffffffffffffffffffffffffffffffffff161415610d73576040517f08c379a0000000000000000000000000000000000000000000000000000000008152600401610d6a906117aa565b60405180910390fd5b610d7f6000838361103a565b8060026000828254610d91919061181c565b92505081905550806000808473ffffffffffffffffffffffffffffffffffffffff1673ffffffffffffffffffffffffffffffffffffffff1681526020019081526020016000206000828254610de6919061181c565b925050819055508173ffffffffffffffffffffffffffffffffffffffff16600073ffffffffffffffffffffffffffffffffffffffff167fddf252ad1be2c89b69c2b068fc378daa952ba7f163c4a11628f55a4df523b3ef83604051610e4b91906117ca565b60405180910390a3610e5f6000838361103f565b5050565b600073ffffffffffffffffffffffffffffffffffffffff168273ffffffffffffffffffffffffffffffffffffffff161415610ed3576040517f08c379a0000000000000000000000000000000000000000000000000000000008152600401610eca9061170a565b60405180910390fd5b610edf8260008361103a565b60008060008473ffffffffffffffffffffffffffffffffffffffff1673ffffffffffffffffffffffffffffffffffffffff16815260200190815260200160002054905081811015610f65576040517f08c379a0000000000000000000000000000000000000000000000000000000008152600401610f5c9061168a565b60405180910390fd5b8181036000808573ffffffffffffffffffffffffffffffffffffffff1673ffffffffffffffffffffffffffffffffffffffff168152602001908152602001600020819055508160026000828254610fbc9190611872565b92505081905550600073ffffffffffffffffffffffffffffffffffffffff168373ffffffffffffffffffffffffffffffffffffffff167fddf252ad1be2c89b69c2b068fc378daa952ba7f163c4a11628f55a4df523b3ef8460405161102191906117ca565b60405180910390a36110358360008461103f565b505050565b505050565b505050565b600081359050611053816119cf565b92915050565b600081359050611068816119e6565b92915050565b60006020828403121561108057600080fd5b600061108e84828501611044565b91505092915050565b600080604083850312156110aa57600080fd5b60006110b885828601611044565b92505060206110c985828601611044565b9150509250929050565b6000806000606084860312156110e857600080fd5b60006110f686828701611044565b935050602061110786828701611044565b925050604061111886828701611059565b9150509250925092565b6000806040838503121561113557600080fd5b600061114385828601611044565b925050602061115485828601611059565b9150509250929050565b60006020828403121561117057600080fd5b600061117e84828501611059565b91505092915050565b611190816118a6565b82525050565b61119f816118b8565b82525050565b60006111b082611800565b6111ba818561180b565b93506111ca8185602086016118fb565b6111d3816119be565b840191505092915050565b60006111eb60238361180b565b91507f45524332303a207472616e7366657220746f20746865207a65726f206164647260008301527f65737300000000000000000000000000000000000000000000000000000000006020830152604082019050919050565b600061125160228361180b565b91507f45524332303a206275726e20616d6f756e7420657863656564732062616c616e60008301527f63650000000000000000000000000000000000000000000000000000000000006020830152604082019050919050565b60006112b760228361180b565b91507f45524332303a20617070726f766520746f20746865207a65726f20616464726560008301527f73730000000000000000000000000000000000000000000000000000000000006020830152604082019050919050565b600061131d60268361180b565b91507f45524332303a207472616e7366657220616d6f756e742065786365656473206260008301527f616c616e636500000000000000000000000000000000000000000000000000006020830152604082019050919050565b600061138360288361180b565b91507f45524332303a207472616e7366657220616d6f756e742065786365656473206160008301527f6c6c6f77616e63650000000000000000000000000000000000000000000000006020830152604082019050919050565b60006113e960218361180b565b91507f45524332303a206275726e2066726f6d20746865207a65726f2061646472657360008301527f73000000000000000000000000000000000000000000000000000000000000006020830152604082019050919050565b600061144f60258361180b565b91507f45524332303a207472616e736665722066726f6d20746865207a65726f20616460008301527f64726573730000000000000000000000000000000000000000000000000000006020830152604082019050919050565b60006114b560138361180b565b91507f53656e646572206973206e6f74206f776e6572000000000000000000000000006000830152602082019050919050565b60006114f560248361180b565b91507f45524332303a20617070726f76652066726f6d20746865207a65726f2061646460008301527f72657373000000000000000000000000000000000000000000000000000000006020830152604082019050919050565b600061155b60258361180b565b91507f45524332303a2064656372656173656420616c6c6f77616e63652062656c6f7760008301527f207a65726f0000000000000000000000000000000000000000000000000000006020830152604082019050919050565b60006115c1601f8361180b565b91507f45524332303a206d696e7420746f20746865207a65726f2061646472657373006000830152602082019050919050565b6115fd816118e4565b82525050565b61160c816118ee565b82525050565b60006020820190506116276000830184611187565b92915050565b60006020820190506116426000830184611196565b92915050565b6000602082019050818103600083015261166281846111a5565b905092915050565b60006020820190508181036000830152611683816111de565b9050919050565b600060208201905081810360008301526116a381611244565b9050919050565b600060208201905081810360008301526116c3816112aa565b9050919050565b600060208201905081810360008301526116e381611310565b9050919050565b6000602082019050818103600083015261170381611376565b9050919050565b60006020820190508181036000830152611723816113dc565b9050919050565b6000602082019050818103600083015261174381611442565b9050919050565b60006020820190508181036000830152611763816114a8565b9050919050565b60006020820190508181036000830152611783816114e8565b9050919050565b600060208201905081810360008301526117a38161154e565b9050919050565b600060208201905081810360008301526117c3816115b4565b9050919050565b60006020820190506117df60008301846115f4565b92915050565b60006020820190506117fa6000830184611603565b92915050565b600081519050919050565b600082825260208201905092915050565b6000611827826118e4565b9150611832836118e4565b9250827fffffffffffffffffffffffffffffffffffffffffffffffffffffffffffffffff0382111561186757611866611960565b5b828201905092915050565b600061187d826118e4565b9150611888836118e4565b92508282101561189b5761189a611960565b5b828203905092915050565b60006118b1826118c4565b9050919050565b60008115159050919050565b600073ffffffffffffffffffffffffffffffffffffffff82169050919050565b6000819050919050565b600060ff82169050919050565b60005b838110156119195780820151818401526020810190506118fe565b83811115611928576000848401525b50505050565b6000600282049050600182168061194657607f821691505b6020821081141561195a5761195961198f565b5b50919050565b7f4e487b7100000000000000000000000000000000000000000000000000000000600052601160045260246000fd5b7f4e487b7100000000000000000000000000000000000000000000000000000000600052602260045260246000fd5b6000601f19601f8301169050919050565b6119d8816118a6565b81146119e357600080fd5b50565b6119ef816118e4565b81146119fa57600080fd5b5056fea2646970667358221220db42c110c28f84039fe3ef7f068af330c6fae6b8dbb40c7da8d255aeb53dabbb64736f6c63430008000033",
  "linkReferences": {},
  "deployedLinkReferences": {}
}